{
  "contractName": "Auction",
  "abi": [
    {
      "inputs": [],
      "stateMutability": "nonpayable",
      "type": "constructor"
    },
    {
      "inputs": [],
      "name": "owner",
      "outputs": [
        {
          "internalType": "address",
          "name": "",
          "type": "address"
        }
      ],
      "stateMutability": "view",
      "type": "function",
      "constant": true
    },
    {
      "inputs": [
        {
          "internalType": "address",
          "name": "auctioneer",
          "type": "address"
        },
        {
          "internalType": "uint256",
          "name": "itemHash",
          "type": "uint256"
        }
      ],
      "name": "pushItem",
      "outputs": [],
      "stateMutability": "nonpayable",
      "type": "function"
    },
    {
      "inputs": [
        {
          "internalType": "uint256",
          "name": "itemHash",
          "type": "uint256"
        }
      ],
      "name": "completeAuction",
      "outputs": [
        {
          "internalType": "bool",
          "name": "",
          "type": "bool"
        }
      ],
      "stateMutability": "view",
      "type": "function",
      "constant": true
    },
    {
      "inputs": [
        {
          "internalType": "uint256",
          "name": "itemHash",
          "type": "uint256"
        }
      ],
      "name": "payForItem",
      "outputs": [],
      "stateMutability": "payable",
      "type": "function",
      "payable": true
    }
  ],
  "bytecode": "0x608060405234801561001057600080fd5b50336000806101000a81548173ffffffffffffffffffffffffffffffffffffffff021916908373ffffffffffffffffffffffffffffffffffffffff160217905550610446806100606000396000f3fe60806040526004361061003f5760003560e01c80630292461f1461004457806321b628861461009f5780638da5cb5b146100f2578063c539114414610149575b600080fd5b34801561005057600080fd5b5061009d6004803603604081101561006757600080fd5b81019080803573ffffffffffffffffffffffffffffffffffffffff16906020019092919080359060200190929190505050610177565b005b3480156100ab57600080fd5b506100d8600480360360208110156100c257600080fd5b810190808035906020019092919050505061028f565b604051808215151515815260200191505060405180910390f35b3480156100fe57600080fd5b5061010761036e565b604051808273ffffffffffffffffffffffffffffffffffffffff1673ffffffffffffffffffffffffffffffffffffffff16815260200191505060405180910390f35b6101756004803603602081101561015f57600080fd5b8101908080359060200190929190505050610393565b005b6000809054906101000a900473ffffffffffffffffffffffffffffffffffffffff1673ffffffffffffffffffffffffffffffffffffffff163373ffffffffffffffffffffffffffffffffffffffff1614610239576040517f08c379a00000000000000000000000000000000000000000000000000000000081526004018080602001828103825260138152602001807f596f7520617265206e6f7420616c6c6f7765640000000000000000000000000081525060200191505060405180910390fd5b816001600083815260200190815260200160002060006101000a81548173ffffffffffffffffffffffffffffffffffffffff021916908373ffffffffffffffffffffffffffffffffffffffff1602179055505050565b60003373ffffffffffffffffffffffffffffffffffffffff166001600084815260200190815260200160002060009054906101000a900473ffffffffffffffffffffffffffffffffffffffff1673ffffffffffffffffffffffffffffffffffffffff1614610365576040517f08c379a00000000000000000000000000000000000000000000000000000000081526004018080602001828103825260138152602001807f4974206973206e6f7420796f7572206974656d0000000000000000000000000081525060200191505060405180910390fd5b60019050919050565b6000809054906101000a900473ffffffffffffffffffffffffffffffffffffffff1681565b6001600082815260200190815260200160002060009054906101000a900473ffffffffffffffffffffffffffffffffffffffff1673ffffffffffffffffffffffffffffffffffffffff166108fc349081150290604051600060405180830381858888f1935050505015801561040c573d6000803e3d6000fd5b505056fea26469706673582212202ee2b67390fd75280dad3cdaf96064f8bccc966e5df12e90817d2c75fb0312af64736f6c63430006000033",
  "source": "//SPDX-License-Identifier: GPL-3.0\n \npragma solidity >=0.6.0 <0.9.0;\n \ncontract Auction{\n\n    address public owner;\n    mapping(uint => address) itemAuctioneers;\n\n    constructor() public{\n        owner = msg.sender;\n    }\n    \n    function pushItem(address auctioneer, uint itemHash) public {\n        require(msg.sender == owner, \"You are not allowed\");\n        itemAuctioneers[itemHash] = auctioneer;\n    }\n\n    function completeAuction(uint itemHash) public view returns(bool){\n        //only auctioneer of this item can finish its item's auction\n        require(itemAuctioneers[itemHash] == msg.sender, \"It is not your item\");\n        return true;        \n    }\n\n    function payForItem(uint itemHash) public payable{\n        payable(itemAuctioneers[itemHash]).transfer(msg.value);\n    }\n\n}",
  "sourcePath": "/home/safak/bl5/contracts/Auction.sol",
  "compiler": {
    "name": "solc",
    "version": "0.6.0+commit.26b70077.Emscripten.clang"
  },
  "schemaVersion": "3.4.8",
  "updatedAt": "2022-08-12T16:15:35.144Z",
  "networkType": "ethereum",
  "devdoc": {
    "methods": {}
  },
  "userdoc": {
    "methods": {}
  }
}